:020000040000FA
:0400000090EF4FF03E
:1089B4001200120012001200948412009494120007
:1089C4008C9612008C861200D09E1200CD8012006C
:1089D40001013B95120001013B51120001014A5172
:1089E4001200016E01C026F11200016E01C032F1C5
:1089F4001200016E01C030F11200016E01C031F1AC
:108A04001200016E01C034F11200016E01C038F190
:108A14001200016E01C033F11200016E01C0DFF2D9
:108A24001200016E01C0E1F21200000E0001F76FA6
:108A34001200026E025081EC45F0120001C036F1C2
:108A440002C037F1120001C001F002C002F01200AE
:108A540001C0EAF102C0EBF1120001C0EEF102C064
:108A6400EFF1120001C0ECF102C0EDF1120001C0FF
:108A7400E4F102C0E5F1120001C0E6F102C0E7F141
:108A8400120081A002D0010E1200000E1200F00E9E
:108A940002010217010ED96F00911200000E016E3F
:108AA400000E026E2FEC45F01200000E016E000E57
:108AB400026E34EC45F01200000E016E000E026EE0
:108AC40039EC45F01200000E016E000E026E2AEC25
:108AD40045F01200000E016E000E026E3EEC45F0F1
:108AE4001200700ED36E040ED26E000E9B6E120036
:108AF400400E6D6E200E6C6E000E6E6E1200016ED6
:108B04006C9E01C06FFF6DA0FED76F50120013C0A2
:108B140089F114C08AF101018B6B8C6B1200F00E89
:108B240002010217010ED86F000EA76F1200F29E09
:108B340017C101F0000E0101176FF28E01501200EF
:108B440013C201F014C202F015C203F016C204F0FD
:108B54001200016E02010299008502510118F00B06
:108B64000118026F1200016E000E026E070E0164FE
:108B740002D0030E026E02501200016E000E026E4D
:108B8400050E016402D0030E026E02501200016E43
:108B94000150D8A402D08B9412000104D8A412006E
:108BA4008B84120005C01CF201C018F202C019F235
:108BB40003C01AF204C01BF21200026E080E026017
:108BC40002D002C01CF2060E0160120001C0EFF2D6
:108BD400120001C01EF202C01FF203C020F204C042
:108BE40021F20201A58502991200046EE2EC44F020
:108BF400045080091BEC45F003501BEC45F0E4ECF9
:108C040044F012000DC005F00EC006F00FC007F0CE
:108C1400000E086E100E096E77EC4DF01200400E37
:108C240071EC46F0010E71EC46F0066E06AE1200D1
:108C3400010E50EC47F01200410E71EC46F0010EAB
:108C440071EC46F0066E06AE1200010E50EC47F0D1
:108C54001200410E71EC46F0010E71EC46F0066E06
:108C640006AE1200010E50EC47F01200CDA407D05E
:108C7400CD900250CF6E01C0CEFFCD8012000250C5
:108C8400CF6E01C0CEFF1200016EF29E0150080D9E
:108C9400040EF324D96E040EF420DA6E000EDF6E97
:108CA400F28E1200026E000E016E0250D8B406D08D
:108CB400060E0218D8B402D0030E016E0150120041
:108CC400CECF08F0CFCF07F00750036E0850056EE3
:108CD40003C006F005C001F006C002F01200036EE6
:108CE400039EE2EC44F003501BEC45F0FF0E1BEC3A
:108CF40045F0046EE4EC44F004501200020E01014D
:108D04003B19D8A4120030C106F0000E076E000E05
:108D14006AEC58F001013B931200016EF29E01507F
:108D2400080D040EF324D96E040EF420DA6EDF501D
:108D3400026EF28E02501200E6EC44F030EC4BF07E
:108D440073EC45F07AEC45F014EC48F074EC48F020
:108D5400DFEC46F01200036E000E026E100E03608C
:108D640006D00150D8A405D0030E036002D0030E30
:108D7400026E02501200AAEC4BF03FC041F040C01A
:108D840042F046C043F047C044F0BDEC49F041C056
:108D940046F042C047F01200026E000E016E02015E
:108DA400A451D8A403D00250D8B403D0050E026451
:108DB40002D0030E016E015012006CEC45F050EC31
:108DC40045F057EC45F05EEC45F0DCEC44F0DDECAE
:108DD40044F065EC45F017EC45F01200F00E02018A
:108DE4000217000E0001DB6F000EDC6F000EDD6F5A
:108DF400000EDE6F000EB2EC56F002010097120076
:108E0400186E14C00FF015C010F016C011F017C082
:108E140012F01850D8EC52F0000E03EC45F0010E9D
:108E240007EC45F0120001500302F3CF05F0F4CF34
:108E340006F001500402F350062602500302F350D8
:108E4400062605C001F006C002F0120008C0D9FFD2
:108E540009C0DAFFDF500F0B0A6E084A092A0A50CC
:108E64001FEC49F00201048108C008F009C009F0B0
:108E740012000DD0060E056E300EE82EFED7052E1C
:108E8400FCD700D00106000E025A035A045A0150BE
:108E9400021003100410D8B41200ECD7056E0504B8
:108EA400D8A406D0FF0E036E120EF7EC45F01200A4
:108EB400FF0E036E3E0EF7EC45F0FF0E036E3F0E01
:108EC400F7EC45F012000101415146EC46F0800EEA
:108ED400036E120EF7EC45F030C106F0000E076E7B
:108EE400000E6AEC58F001013B935AEC6CF012004E
:108EF40001C007F002C008F008D007C0D9FF08C0BD
:108F0400DAFF03C0DFFF074A082A0506D8A00606D1
:108F14000528F3E10628D8B41200EFD70E6E080E28
:108F24000E6402D0080E0E6E270E016E010E026E44
:108F34000CC003F00DC004F00EC005F0066A56EC38
:108F44004CF00EC02FF1120001C0D9FF02C0DAFFAD
:108F5400DF500201DD6F014A022A01C0D9FF02C0BD
:108F6400DAFFDF50DE6F014A022A01C001F002C0BD
:108F740002F01200020102990095F00E021700019E
:108F8400F251F311D8B4120001D812000500FA6EA0
:108F9400F251FD6EF351FE6EFF6AFA50000E12009C
:108FA4003E0E71EC46F00D6E0DB0120030C106F0AD
:108FB400000E076E000E6AEC58F00101415146ECB8
:108FC40046F001013B935AEC6CF012000C500D106A
:108FD400D8B41200320E016E020E026E0CC003F001
:108FE4000DC004F0000E066E100E056E56EC4CF02B
:108FF4000201A58B029912000C500D10D8B4120076
:10900400220E016E020E026E0CC003F00DC004F0BD
:10901400000E066E100E056E56EC4CF00201A5898A
:10902400029912008C0ECD6E000ECC6E000ECF6E27
:10903400000ECE6ECECFE8F1CFCFE9F19E909D80A9
:10904400000E016E000E026E3EEC45F0E8EC44F0BA
:109054001200046E0450080D060EF324D96E040E9B
:10906400F420DA6E01C0DEFF02C0DDFF0450080DFB
:10907400050EF324D96E040EF420DA6E03C0DFFF6C
:109084001200036E03500E0D060EF324D96E030E68
:10909400F420DA6E01C0DEFF02C0DDFF03500E0DC6
:1090A4000D0EF324D96E030EF420DA6E000EDB8469
:1090B4001200230E016E000E026E21C003F022C0C6
:1090C40004F0000E066E100E056E56EC4CF01FC038
:1090D40008F020C009F0230E0A6E000E0B6EC4ECDB
:1090E40070F01200F090F18A000E016E000E026E14
:1090F4002FEC45F0F086F092F188000E016E000E20
:10910400026E34EC45F0F088F292F18C000E016EA0
:10911400000E026E2AEC45F01200076E010E016E7D
:109124000750ADEC46F00009D8A4120007500E0D0C
:109134000D0EF324D96E030EF420DA6EDF50070B04
:10914400070AD8A4120005C001F00750CCEC5BF06C
:109154001200056E05500E0D000EF324D96E030E99
:10916400F420DA6E01C0DEFF02C0DEFF03C0DEFFC2
:1091740004C0DEFF05500E0D0D0EF324D96E030E50
:10918400F420DA6E000EDB801200120E71EC46F051
:10919400010136513711D8B40ED047514811D8B413
:1091A4000AD0000E0E6E000E0F6E000E106E000E32
:1091B400116EF6EC57F0020E036E120EF7EC45F04A
:1091C4001200326EF29E59EC59F03250080D000E26
:1091D400F324D96E040EF420DA6EDECF2EF0DECF47
:1091E4002FF0DECF30F0DECF31F0F28E2EC02AF039
:1091F4002FC02BF030C02CF031C02DF01200046EC3
:10920400000E036E04500F0B066E04380F0B0F0B89
:10921400056E0550B5EC45F00009D8A40AD00650F7
:10922400B5EC45F00009D8A404D00650055CD8B0CC
:1092340002D0030E036E03501200076E07C001F044
:10924400026A030E046EE80E036E15EC47F001C0CB
:1092540094F202C095F20750D8A405D0030E02017F
:10926400956FE80E946FE80E02019425966F030E35
:109274009521976F1200C4EC54F099EC45F000016D
:10928400F66FF6B14BEC52F00001F6B3B9EC4AF0CC
:109294000001F6B56CEC4AF00001F6B711EC46F0AB
:1092A4000001F6B91EEC46F00001F6AB12002BECFF
:1092B40046F01200166EF29EE00E0E24126EFF0EA1
:1092C4000F20136EFF0E1020146EFF0E1120156E6A
:1092D4001650080D000EF324D96E040EF420DA6E35
:1092E40012C0DEFF13C0DEFF14C0DEFF15C0DEFFB8
:1092F400F28E120030C106F0010E076E010E6AEC08
:1093040058F030C106F0000E076E000E6AEC58F0FB
:1093140001013B893BA304D03B935AEC6CF012004F
:109324003BA112003B9142C154F043C155F048ECBB
:1093340076F01200E0EC44F0000EC9EC45F0010EAA
:10934400016E000E026E000E036E000E046E3BEC06
:1093540047F0DEEC44F00A0E016E000E026E000EC1
:10936400036E000E046E3BEC47F0010EC9EC45F0B1
:10937400E0EC44F0120043504410D8B418D0010E6D
:10938400456E04D0D89043364436452A44AEFAD7C5
:109394004350415C44504258D8A004D04350415EED
:1093A4004450425AD89044324332452EF1D741C0FA
:1093B40041F042C042F0120062EC46F001C010F1EC
:1093C40002C011F162EC46F001011051011804E1F0
:1093D40011510218D8B4F6D709C001F00AC002F03E
:1093E40038EC46F00101104B112B10C10EF111C1E4
:1093F4000FF10EC109F00FC10AF01200186E14C06B
:109404000FF015C010F016C011F017C012F018506C
:10941400D8EC52F0A20E0201E125F66EF76AFF0EB7
:10942400F722F86A000EF8220800F5CF19F0195057
:109434000BEC45F0010E03EC45F0000E07EC45F093
:10944400120001500210D8B411D0000E056E01A014
:109454000FD005500E0D0D0EF324D96E030EF4201B
:10946400DA6EDF50070B070AD8B402D0030E1200DD
:10947400D8900230036E0130016E03C002F0052A59
:109484000F0E0564E4D7000E120022EC55F00A6EAC
:109494000201A751D8A40DD0770EDF25F66EF76A26
:1094A400FF0EF722F86A000EF8220800F5CF0BF041
:1094B4000FD0770EDF25F66EF76AFF0EF722F86AF3
:1094C400000EF8220800F5CF09F00A50095C0B6E73
:1094D4000B501200400E71EC46F01B6ED8901B32FC
:1094E400D8901B30030B1D6E010E71EC46F0010E7B
:1094F40071EC46F01B6E1BAE120007D0C7EC48F0AF
:109504001200010E50EC47F012001D50000AD8B4AE
:10951400F5D7010AD8B4F2D7030AD8B4EFD7F1D7F4
:10952400000E126E000E136E000E146E000E156EF9
:10953400120E016E000E026E0E500C24106E000E00
:109544000D20116EFC0E1024036EFF0E1120046E0C
:10955400000E066E040E056E56EC4CF012C00CF0B4
:1095640013C00DF014C00EF015C00FF01200400E21
:1095740071EC46F05F6E5F380F0B030B0001656FF3
:10958400010E71EC46F05F6E5FBE0BD013D065EC3C
:1095940047F01200C7EC48F01200010E50EC47F0FF
:1095A400120000016551000AD8B4F1D7010AD8B4F9
:1095B400F1D7F3D700016551000A1200000E076EBF
:1095C40005C008F01ED008500324D96E000E0420F4
:1095D400DA6E08500124E16E000E0220E26EE750BC
:1095E400066ED89006340710DF6E08500124D96E39
:1095F400000E0220DA6EDFAE02D0010E01D0000EA2
:10960400076E08060828D8B41200DDD701C0D9FFB8
:1096140002C0DAFFDF50066E014A022A0F0E06600E
:1096240013D006C003F0010E046E000E056E032A6B
:1096340003D0D89004360536032EFBD704C0DBF2E2
:1096440005C0DCF20201038D0628D8A402D0020171
:10965400028F01C001F002C002F01200000E8D6EF4
:10966400000E8C6E000E896E000E8A6E000E8B6EDC
:10967400070E966E92689368DF0E946EC60E956E12
:10968400D80E0F013A6F280E396FC40E3B6F070EC8
:109694003C6F2F0E386F6168F18E6288000E016E88
:1096A400000E026E39EC45F0F2861200ACEC4EF07E
:1096B4000201E26FACEC4EF00201E36FACEC4EF051
:1096C4000201E46FACEC4EF00201E56FACEC4EF03D
:1096D4000201E76FACEC4EF00201E86FACEC4EF027
:1096E4000201E66FACEC4EF00201EA6FACEC4EF016
:1096F4000201F36FACEC4EF00201E96F12000201BB
:10970400E25146EC46F00201E35146EC46F0020118
:10971400E75146EC46F00201E45146EC46F0020102
:10972400E55146EC46F00201E85146EC46F00201F0
:10973400E65146EC46F00201EA5146EC46F00201DD
:10974400F35146EC46F00201E95146EC46F01200B2
:1097540089C133F08AC134F08BC135F08CC136F045
:109764006D0E376E4E0E386EC60E396E410E3A6E61
:10977400D4EC4BF033C089F134C08AF135C08BF19D
:1097840036C08CF1390E01018927300E8A23000E70
:109794008B23000E8C23FF0E8B153F6E7F0E8C15D2
:1097A400406E1200000E3B6E000E3C6E000E3D6ECD
:1097B400000E3E6E33A008D037503B2638503C2272
:1097C40039503D223A503E22D89037363836393611
:1097D4003A36D8903632353234323332335034104C
:1097E40035103610D8A4E6D73BC033F03CC034F073
:1097F4003DC035F03EC036F0120020EE05F00150B9
:10980400D9260250DA22DFAE02D00201028D20EE08
:1098140005F00150D9260250DA22DFA802D0020155
:10982400008720EE05F00150D9260250DA22DFAC81
:1098340002D00201008901C0D9FF02C0DAFFDF387B
:10984400E832070B050AD8A41200020100831200B3
:109855004C6F526157414E206973206561737920C1
:109865003A20000000000000000000000000000099
:109875000000870004A30B001B0C25010000006CF1
:109885006B8600FFFFFFFF6F33FD7F627B50BD4698
:109895009EC684B8FF6014105FB08515169520C963
:1098A50057A4F754DCD49303C00AF004C00BF001AD
:1098B500C008F002C009F01CD00AC0F6FF0BC0F7C3
:1098C500FF000EF86E0F0EF76403D00800F5500583
:1098D500D0F6CFE9FFF7CFEAFFEF50076E0A4A0B44
:1098E5002A08C0D9FF09C0DAFF07C0DFFF084A0907
:1098F5002A0506D8A006060528DFE10628D8B412F1
:1099050000DBD70201F051D8A408D058EC4BF04D3C
:10991500EC56F0010E0201F06F02D081EC4BF04BDA
:10992500C0F0F04CC0F1F04DC0F2F04EC0F3F0BF06
:109935000E1A6E050E1B6EA00E1C6E270E1D6EBE3A
:109945000E1E6E330E1F6E78EC62F090EC52F00D29
:10995500C013F00EC014F089EC45F0000E2BEC643A
:10996500F01200000E0001D46F000ED56F000ED668
:109975006F000ED76F5BC060F05CC061F04E0E6289
:109985006F010E636F5DC064F05EC065F05FC06619
:10999500F0CBEC6DF0D40E016E000E026E4E0E0390
:1099A5006E010E046E000E066E040E056E56EC4C2E
:1099B500F0D4C05BF0D5C05CF0D6C05DF0D7C05E1A
:1099C500F01200546E54C048F0560E496E000E4A0F
:1099D5006E100EE0EC58F0556E5550D8A420D056B8
:1099E500C0DAF256500E0D000EF324D96E030EF4B4
:1099F50020DA6EDECF13F2DECF14F2DECF15F2DE03
:109A0500CF16F2DFC217F213C214F014C215F01507
:109A1500C216F016C217F00201175100EC4AF055B4
:109A2500501200076E000E056E01AE03D0016C01E9
:109A35000E056E07AE03D0076C010E051A000E0663
:109A45006E0150D8B41AD0010E046E03D0D890011F
:109A550036042A01C002F0036A02BE030602AEF60E
:109A6500D7D89006360150075CD8A003D00150071F
:109A75005E0680D8900132042EF3D70550D8A4068F
:109A85006C06501200000E126E480E136EE80E148E
:109A95006E010E156E12C001F013C002F014C00362
:109AA500F015C004F00EC005F00FC006F010C00799
:109AB500F011C008F0FEEC50F001C012F002C01326
:109AC500F003C014F004C015F013C003F0020EF744
:109AD500EC45F012C003F0030EF7EC45F0000E0361
:109AE5006E5D0EF7EC45F01200060E0718D8A40EB1
:109AF500D008C00CF006D0010E016E0C50CCEC5B0A
:109B0500F00C2A09500C5CD8B01200F5D70750D8D4
:109B1500A4120008C00CF015D005A006D0010E0156
:109B25006E0C50CCEC5BF005D0000E016E0C50CCE9
:109B3500EC5BF0D89006300A6E0530056E0AC0065B
:109B4500F00C2A09500C5CD8B01200E6D705500677
:109B55001007100810D8B424D0010E096E06D0D80D
:109B6500900536063607360836092A08AEF8D705B1
:109B750050015C065002580750035808500458D845
:109B8500A008D00550015E0650025A0750035A0836
:109B950050045AD8900832073206320532092EE7AA
:109BA500D701C001F002C002F003C003F004C004F5
:109BB500F01200000E056E0201A451D8A417D08141
:109BC5000E015C250E0258DB0E0358330E0458D8DF
:109BD500B00AD0C00E015C550E0258700E03583302
:109BE5000E0458D8B017D0030E056E14D0710E01AF
:109BF5005C5E0E0258EA0E0358190E0458D8B0F3ED
:109C0500D7900E015CD10E0258CF0E0358190E04E1
:109C150058D8A0E9D705501200010EE4EC4CF0002D
:109C250009D8A413D0B00E4A6E040E4B6ED4C24CA4
:109C3500F0F7EC65F04A504B10D8A407D00201D8D4
:109C45002B0251F00B0109026F120091EC45F00057
:109C550001F051F111D8B41200000E016E000E0290
:109C65006E000E036E000E046E01D812000500FA98
:109C75006EF051FD6EF151FE6EFF6AFA5012000E44
:109C8500C012F00FC013F010C014F011C015F0147D
:109C9500C015F013C014F012C013F0126A12C001FF
:109CA500F013C002F014C003F015C004F0090E054E
:109CB5006E3D0E066E000E076E000E086EFEEC5031
:109CC500F001C012F002C013F003C014F004C01577
:109CD500F013C003F0040EF7EC45F012C003F005D5
:109CE5000EF7EC45F0120002010251F00B060902D5
:109CF5006FA051336EA151346E356A366A0C0ED899
:109D0500903336343635363636E82EF9D733C0013A
:109D1500F034C002F035C003F036C004F07D0E0506
:109D25006E000E066E000E076E000E086EFEEC50FD
:109D3500F001C00EF002C00FF003C010F004C01116
:109D4500F00201E8515CEC49F00201E851C3EC5125
:109D5500F01200140E0001F76132D0F29EF7C00137
:109D6500F00150080D040EF324D96E040EF420DA28
:109D75006E000EDF6E0150080D000EF324D96E043F
:109D85000EF420DA6EDE6ADE6ADE6ADD6A015008EC
:109D95000D050EF324D96E040EF420DA6E000EDFE5
:109DA5006E0150080D060EF324D96E040EF420DA68
:109DB5006E000EDE6E000EDD6EF72BF28E01D0FF0B
:109DC500D701501200000E016E030E026E000E0444
:109DD5006E000E036E000E066EE00E056E7AEC4701
:109DE500F0000E016E030E026EA80E036EFF0E0448
:109DF5006E000E066E2A0E056E56EC4CF0030E0C28
:109E05006E0C500E0D060EF324D96E030EF420DAF7
:109E15006EFF0EDE6EFF0EDD6E0C500E0D050EF3A1
:109E250024D96E030EF420DA6EFF0EDF6E0C2A0FB6
:109E35000E0C64E6D71200000E016E030E026E00D2
:109E45000E046E000E036E000E066EE00E056E7AB1
:109E5500EC47F0000E016E030E026ED20E036EFF8C
:109E65000E046E000E066E2A0E056E56EC4CF003BF
:109E75000E0C6E0C500E0D060EF324D96E030EF467
:109E850020DA6EFF0EDE6EFF0EDD6E0C500E0D0538
:109E95000EF324D96E030EF420DA6EFF0EDF6E0C7E
:109EA5002A0F0E0C64E6D7120080EC46F0EAEC446B
:109EB500F018C214F019C215F01AC216F01BC21719
:109EC500F002011C5102EC47F0000E4B6E000E4AE9
:109ED5006EF7EC68F04A504B10D8B4120049EC45C7
:109EE500F091EC45F0F00E020102170001F051F17E
:109EF50011D8B41200000E016E000E026E000E03A2
:109F05006E000E046E01D812000500FA6EF051FDC8
:109F15006EF151FE6EFF6AFA501200550EF66E98FC
:109F25000EF76E000EF86E01EE5EF010EE57F009BA
:109F350000F5CFEEFFE550E150FAE104EEA0F01296
:109F4500EE1EF0EE6AE550E150FCE1E250FAE10464
:109F5500EE00F0A00EEE6AE806FDE103EE00F0E08B
:109F65000EEE6AE806FDE102EE00F0F50EEE6AE897
:109F750006FDE101EE00F05E0EEE6AE806FDE10089
:109F8500EEF0F0080EEE6AE806FDE1000143EF5041
:109F9500F020EE05F00150D9260250DA22DFBA1280
:109FA500D020EE05F00150D9260250DA22DFBC0A96
:109FB500D001C0D9FF02C0DAFFDF38E832070B0352
:109FC5000AD8B402D0000E120020EE05F00150D9D7
:109FD500260250DA22DF500F0B0009D8A4F3D72050
:109FE500EE08F00150D9260250DA22DF50D8B4EA43
:109FF500D720EE05F00150D9260250DA22DFA8025B
:10A00500D002010087010E1200020102510F0B055B
:10A015000AD8B408D002510F0B030AD8A426D0F1F0
:10A0250051D8B423D00091F00E02171251D8A41BB9
:10A03500D00001F051F111D8B416D00201009B00F7
:10A045000E016E000E026E000E036E000E046E0110
:10A05500D80AD00500FA6E0001F051FD6EF151FEEF
:10A065006EFF6AFA50120002010393020E1219D80C
:10A07500A412000251F00B0909026F57EC4FF012C0
:10A085000021EE5EF011EEC9F0120EDBCFE3FFE822
:10A0950006FCE29EEC46F0F28EF28C21EE81F01188
:10A0A500EEDCF0070EDBCFE3FFE806FCE2B40E4B77
:10A0B5006E890E4C6EB60E4D6E890E4E6E84EC4C4E
:10A0C500F0A50E0C6E010E0D6EFEEC47F0950E0C14
:10A0D5006E010E0D6EE8EC47F06C0E016E6B0E0214
:10A0E5006E860E036E000E046EEBEC45F0010E68F5
:10A0F500EC53F03DEC49F0FDD7320E0C6E020E0D1F
:10A105006E010E33240E6E000E34200F6E040E33D6
:10A1150024106E000E3420116E20EC53F0020E0256
:10A1250001326F320E1F6E020E206E420E216E023C
:10A135000E226E5BEC48F0220E0C6E020E0D6E01C7
:10A145000E33240E6E000E34200F6E040E332410D1
:10A155006E000E3420116E20EC53F0010E02012228
:10A165006F220E1F6E020E206E420E216E020E220F
:10A175006E5BEC48F01200020103B11200020E12F0
:10A1850019D8B480EC46F00201EF51175DD8A00351
:10A19500D0EF51175D01D0000E176FA2EC45F0010D
:10A1A500C054F002C055F003C056F004C057F00289
:10A1B500010251F00B0309026FEAEC44F054C0149C
:10A1C500F055C015F056C016F057C017F00201172C
:10A1D5005102EC47F07F0E02011725F66EF76AFF74
:10A1E5000EF722F86A000EF8220800F5504A6E4B69
:10A1F5006AF7EC68F01200000E096E000E0A6E0098
:10A205000E0B6E000E0C6E0550061007100810D8C8
:10A21500B42AD0010E0D6E06D0D890053606360745
:10A225003608360D2A08AEF8D7D89009360A360B07
:10A23500360C360550015C06500258075003580885
:10A24500500458D8A009D00550015E0650025A079F
:10A2550050035A0850045A0980D89008320732062C
:10A265003205320D2EE1D709C001F00AC002F00B0C
:10A27500C003F00CC004F012000101945193119237
:10A285001104E10B0E915DD8A0120091510B5C9267
:10A29500510C5893510D5894510E58D8B012000BCB
:10A2A500C091F10CC092F10DC093F10EC094F1F480
:10A2B500C013F0F5C014F00B5000080001F46F0C4A
:10A2C50050D8A0E82A0008F56FF4C009F0F5C00AD7
:10A2D500F0DEEC49F009C011F00AC012F01350117C
:10A2E5005C0F6E14501258106E0F500101082710A4
:10A2F500500923000E0A23000E0B231200000E0640
:10A305006E04AE06D0036C041ED8B0042A010E06F6
:10A315006E02AE06D0016C021ED8B0022A010E06EE
:10A325001A000E086E000E076E03500410D8B41CF8
:10A33500D0010E056E04D0D89003360436052A04E4
:10A34500AEFAD7D890073608360350015C045002A0
:10A3550058D8A005D00350015E0450025A0780D892
:10A365009004320332052EEDD70650D8B404D00739
:10A375006C081ED8B0082A07C001F008C002F01208
:10A3850000326EF29E59EC59F019C02EF01AC02F0A
:10A39500F01BC030F01CC031F03250080D000EF338
:10A3A50024D96E040EF420DA6E2E50DE5C2F50DEBA
:10A3B500583050DE583150DE58D8B010D0325008E1
:10A3C5000D000EF324D96E040EF420DA6EDECF2EC6
:10A3D500F0DECF2FF0DECF30F0DECF31F02EC00B28
:10A3E500F02FC00CF030C00DF031C00EF03FEC5135
:10A3F500F03250080D040EF324D96E040EF420DA61
:10A405006E010EDF6EF28E1200400E015C740E02BC
:10A41500582A0E0358080E0458D8A00AD0C10E01B8
:10A425005C490E02586E0E03580A0E0458D8A02730
:10A43500D0800E015C1A0E0258700E0358180E04D7
:10A4450058D8A00AD0410E015CDD0E02584A0E0311
:10A45500581F0E0458D8A013D0800E015C130E02AD
:10A4650058610E0358330E0458D8A012000104F7A2
:10A475000E0258CB0E03583C0E0458D8B0120001FA
:10A48500C018F102C019F103C01AF104C01BF11282
:10A4950000400E71EC46F00001EC6F060EED6FD832
:10A4A50090EC33ED2FFCD7EC51030BEE6F010E71E1
:10A4B500EC46F00001EF6FEFBF0BD02AD019EC5737
:10A4C500F01200D5EC59F01200010E50EC47F012D5
:10A4D50000EE51000AD8B4F2D7010AD8B4F2D7F485
:10A4E500D7070EEF17030EEF19D8A403D04AEC5B7C
:10A4F500F01200050EEF19D8A403D00FEC54F0129A
:10A5050000000E50EC47F01200000E50EC47F01220
:10A5150000EE51000AD8B4E4D7F7D7000E116E004B
:10A525000E106E010E066E010E076E000E6AEC58D7
:10A53500F0FF0E036E110EF7EC45F0010E066E01ED
:10A545000E076E050E6AEC58F0000E126E010E0134
:10A555006E000E026E000E036E000E046E3BEC479D
:10A56500F0D890103611362C0E71EC46F00F6E01B6
:10A575000E0F160F501012122A0F0E1264E7D70194
:10A585000E066E010E076E000E6AEC58F0FF0E0304
:10A595006E120EF7EC45F0000E036E110EF7EC454A
:10A5A500F010C00DF011C00EF01200136E670E13FF
:10A5B50024F66EF76AFF0EF722F86A000EF82208F5
:10A5C50000F550FBEC44F00FC001F010C002F01193
:10A5D500C003F012C004F007EC52F0000E026E004A
:10A5E5000E016E20EC45F0070E13601FD0950E137B
:10A5F50024F66EF76AFF0EF722F86A000EF82208B5
:10A6050000F550FFEC44F08E0E1324F66EF76AFF4A
:10A615000EF722F86A000EF8220800F550F7EC4410
:10A62500F00201F451F3EC44F01200FC0E0C6EFF45
:10A635000E0D6E030E90EC47F01200000E126E0C1C
:10A64500C001F00DC002F0000E046E000E036E0096
:10A655000E066E100E056E7AEC47F0122A12500C9B
:10A6650024016E000E0D20026E0EC003F00FC00413
:10A67500F0000E066E030E056E56EC4CF0125003FC
:10A685000F126E12500C24016E000E0D20026E107A
:10A69500C003F011C004F0000E066E030E056E56E1
:10A6A500EC4CF01250030F126E12500C24016E0088
:10A6B5000E0D20026ED20E036E020E046E000E0603
:10A6C5006E020E056E56EC4CF012000001E36F02AF
:10A6D5000103B1120002BF120002510F0B0009D88D
:10A6E500A41200E3C01DF20001E351D8A423D00257
:10A6F50001A5A11200A5A31200A5A7120067EC6091
:10A70500F00001E16F000EE4EC4CF00001E26FE2B5
:10A7150051D8A41200A00E4A6E040E4B6EE1C04C37
:10A72500F0F7EC65F04A504B10D8A41200010EABBF
:10A73500EC45F012000201A5AB1200A5A91200A577
:10A74500A51200070EABEC45F08F0E0E6E020E0F34
:10A755006E000E106E000E116E0201F3515CEC4995
:10A76500F00201F351C3EC51F01200000E026E022B
:10A7750001DF51EB5DD8B04ED0DF053FD0000E03B1
:10A785006E2ED003500E0D050EF324D96E030EF474
:10A7950020DA6E0301DF500F0B016E0150045CD807
:10A7A500A01DD003500E0D050EF324D96E030EF433
:10A7B50020DA6EDF380F0B016E0450015CD8A00E55
:10A7C500D003500E0D040EF324D96E030EF420DAD7
:10A7D5006EDE04D8A403D0010E026E06D0032A0251
:10A7E50001ED51035CD8A0CDD70250D8A407D00401
:10A7F500500201EB5DD8B002D00404046E0250D8BB
:10A80500A405D00201EB51045CD8B0B8D70204D836
:10A81500B404C0DFF2025012003F0E71EC46F000A6
:10A8250001EA6FEAA512000101415146EC46F0012B
:10A8350001405146EC46F0E2EC44F0000E1BEC45BD
:10A84500F0FF0E1BEC45F001013C6F000E0001EB23
:10A855006F0FD0EB5101013D25D96E0001000E01AE
:10A86500013E21DA6EFF0E1BEC45F0DF6E0001EBB9
:10A875002B01013C510001EB5DD8A0EBD7E4EC4482
:10A88500F030C106F0000E076E000E6AEC58F001BC
:10A89500013B93800E4A6F3405D8A403D00001EA2A
:10A8A500A303D001013B8502D001013B953BA509DE
:10A8B500D03DC1E2F03EC1E3F03CC1E4F0B5EC7936
:10A8C500F012005AEC6CF01200070E0201EB6F005B
:10A8D5000EEC6F000E026E50D002500E0D050EF3F9
:10A8E50024D96E030EF420DA6E0301DF500F0B013D
:10A8F5006E0201EB51015CD8B018D002500E0D0468
:10A905000EF324D96E030EF420DA6EDE04D8A40DFE
:10A91500D002500E0D050EF324D96E030EF420DA85
:10A925006E0301DF500F0B0201EB6F02500E0D0598
:10A935000EF324D96E030EF420DA6E0301DF380F0F
:10A945000B0201EC6118D002500E0D040EF324D950
:10A955006E030EF420DA6EDE04D8A40DD002500E7C
:10A965000D050EF324D96E030EF420DA6E0301DF14
:10A97500380F0B0201EC6F022AED51025CD8B012C0
:10A9850000ABD7F29E000E0001E66F53D0E65108EA
:10A995000D040EF324D96E040EF420DA6EDE04D80D
:10A9A500A446D0E651080D000EF324D96E040EF42A
:10A9B50020DA6EDE50DE10DE10DE10D8A438D0E6C8
:10A9C50051080D040EF324D96E040EF420DA6E003E
:10A9D5000EDF6EE651080D060EF324D96E040EF453
:10A9E50020DA6EDE50DE10D8B422D0F28EE65108A1
:10A9F5000D060EF324D96E040EF420DA6EDECFE2D6
:10AA0500F0DDCFE3F001D812D00500FA6EE251FD7A
:10AA15006EE351FE6EFF6AFA50E651080D050EF31E
:10AA250024D96E040EF420DA6EDF501200F29E0077
:10AA350001E62BF751E65DD8A0A9D7F28E120000EA
:10AA45000E076E000E086E57D00850020DA80EF3C3
:10AA550024D96E020EF420DA6EDE28D8B44BD0FE6F
:10AA65000E016EFF0E026E0850020DA80EF324D9DA
:10AA75006E020EF420DA6EDF50036E046A01500395
:10AA85002602500422870E0324F66EFF0E0420F7DB
:10AA95006EF86A000EF8220800F55007C005F006AA
:10AAA5006A0526000E062206BE06D0065029E110CC
:10AAB5000E055CD8B025D0FE0E016EFF0E026E08A5
:10AAC50050020DA80EF324D96E020EF420DA6EDFC3
:10AAD50050036E046A0150032602500422870E03B8
:10AAE50024F66EFF0E0420F76EF86A000EF82208B1
:10AAF50000F5500726082A0201A751085CD8A0A432
:10AB0500D707501200136E000E146E4E0E016E0123
:10AB15000E026E000E046E000E036E000E066E1021
:10AB25000E056E7AEC47F011C04EF11450050F1466
:10AB35006E4E0E1424D96EDA6A010EDA2213C0DFC6
:10AB4500FF142A1250D8A414D04E0E1424016E02FC
:10AB55006A010E02221E0E036E020E046E000E0620
:10AB65006E040E056E56EC4CF01450040F146E1165
:10AB7500D04E0E1424016E026A010E0222620E03EB
:10AB85006E020E046E000E066E040E056E56EC4C3B
:10AB9500F0EBD74E0E1424016E026A010E02220C50
:10ABA5000E036E000E046E000E066E040E056E5644
:10ABB500EC4CF01450040F146E142A4E0E1424D9C4
:10ABC5006EDA6A010EDA2210C0DFFF1200020103FD
:10ABD500B158D0EDEC44F0546E54B24FD00201029E
:10ABE50051F00B0509026F80EC46F0EAEC44F018D1
:10ABF500C214F019C215F01AC216F01BC217F002E2
:10AC0500011C5102EC47F002011251D8A42FD07F4C
:10AC15000E1C25F66EF76AFF0EF722F86A000EF88D
:10AC2500220800F5504A6E4B6AF7EC68F04A504B23
:10AC350010D8B4120049EC45F091EC45F00001F054
:10AC450051F111D8B41200000E016E000E026E0013
:10AC55000E036E000E046E01D812000500FA6EF0A8
:10AC650051FD6EF151FE6EFF6AFA5012000251F06D
:10AC75000B0909026F57EC4FF01200010E0201F1AA
:10AC85006F120000A502D00095029991EC45F0499C
:10AC9500EC45F012007C0E016EA10E026E000E0353
:10ACA5006E0201E2512BEC48F0D20E016EAB0E02A2
:10ACB5006E000E036E0201E3512BEC48F0C00E014D
:10ACC5006EBA0E026E000E036E0201E7512BEC48C0
:10ACD500F07C0E016EA10E026E000E036E0201E401
:10ACE500512BEC48F0D20E016EAB0E026E000E0336
:10ACF5006E0201E5512BEC48F0A40E016EB80E0270
:10AD05006E000E036E0201E8512BEC48F0E00E01D7
:10AD15006E8D0E026E000E036E0201E6512BEC489D
:10AD2500F01E0E016E9C0E026E000E036E0201EA0D
:10AD3500512BEC48F0A20E016EB40E026E000E030C
:10AD45006E0201F3512BEC48F0FE0E016ED30E029C
:10AD55006E000E036E0201E9512BEC48F012000063
:10AD650001E16F020103B1120002BF120002A91234
:10AD7500000001DB51D8A403D0DE51D8A41200474E
:10AD8500EC4AF00001DF6FDE51DF5DD8A012000252
:10AD950001062909E1072907E1082905E10929D85B
:10ADA500A402D00483120002510F0B0009D8B4038A
:10ADB500D01251D8B41200010EE4EC4CF00001E0C1
:10ADC5006FE051D8A41200020E02011219D8B48006
:10ADD500EC46F0DBC05BF0DCC05CF0DDC05DF0DEB6
:10ADE500C05EF05F6A0001E15144EC72F0B00E4ABA
:10ADF5006E040E4B6ED4C24CF0F7EC65F04A504B26
:10AE050010D8A41200010E02010627000E07230820
:10AE15002309230001E105D8A402D0020100810223
:10AE250001008B0251F00B0109026F1200120E7125
:10AE3500EC46F00001EA6F700E036E120EF7EC455A
:10AE4500F00001EA51500B500AD8A412000101414B
:10AE55005146EC46F01C0E71EC46F00001EB6F011B
:10AE6500013451D8B404D00001EAABEBAD39D013AD
:10AE75000E71EC46F001013C6F000E036E0D0EF7EE
:10AE8500EC45F0E2EC44F0000E1BEC45F0000E0042
:10AE950001EB6F0FD0EB5101013D25D96E0001008B
:10AEA5000E01013E21DA6EFF0E1BEC45F0DF6E0050
:10AEB50001EB2B01013C510001EB5DD8A0EBD7E480
:10AEC500EC44F001013B85190E71EC46F001014A95
:10AED5006F040E016E4A5114EC4DF001014A6F02E8
:10AEE500D001013B8730C106F0000E076E000E6AE7
:10AEF500EC58F001013B933DC1E2F03EC1E3F03C6B
:10AF0500C1E4F0B5EC79F01200076E01013551D8B6
:10AF1500A42CD00750800A830FD8B002D0FD0E07AD
:10AF25006E0750800A700FD8A002D00F0E076E4D25
:10AF35000E71EC46F0066EF80E0616068406C00382
:10AF4500F04D0EF7EC45F007AE09D0030E072607C6
:10AF5500502009036E090EF7EC45F01200075070FA
:10AF650009036E090EF7EC45F012000750800A7EC2
:10AF75000FD8B002D0020E076E0750800A6C0FD8AA
:10AF8500A002D0140E06D00750800A6E0FD8A0027A
:10AF9500D0110E076E0B0E71EC46F0056E4D0E715D
:10AFA500EC46F0066EF80E0616140E0718D8A40621
:10AFB500D0070E06120F0E076E059A04D00684FE02
:10AFC5000E0726058A06C003F04D0EF7EC45F0077F
:10AFD500508009036E090EF7EC45F005C003F00B30
:10AFE5000EF7EC45F012000EC001F00FC002F01094
:10AFF500C003F011C004F0090E056E3D0E066E008B
:10B005000E076E000E086EFEEC50F001C016F00241
:10B01500C017F003C018F004C019F00EC001F00FFE
:10B02500C002F010C003F011C004F0090E056E3D1A
:10B035000E066E000E076E000E086EA9EC4DF001AF
:10B04500C012F002C013F003C014F004C015F018CC
:10B05500C019F017C018F016C017F0166A14C015FD
:10B06500F013C014F012C013F0126A12C001F013ED
:10B07500C002F014C003F015C004F0090E056E3DC2
:10B085000E066E000E076E000E086EFEEC50F00107
:10B09500C012F002C013F003C014F004C015F01282
:10B0A500501626135017221450182215501922181D
:10B0B500C003F0060EF7EC45F017C003F0070EF7D6
:10B0C500EC45F016C003F0080EF7EC45F012000B46
:10B0D5006E0650D8A408D0060E0B18D8B412000777
:10B0E5000E0B18D8B41200070E0B16010E0616012A
:10B0F5000E71EC46F00C6E0CAE02D0010E01D000C4
:10B105000E086E0C50070B0A6E08500618D8B41AB4
:10B11500D00A50D8B408D00C50F80B036E010EF7C6
:10B12500EC45F0000E0A6E0650D8A403D00C5078FA
:10B135000B03D00C50780B80090C6E0CC003F0018A
:10B145000EF7EC45F00A500B18D8B412000B50D886
:10B15500B414D00704D8A411D0410E71EC46F009FF
:10B165006E0650D8A403D0300E091202D0CF0E09B6
:10B175001609C003F0410EF7EC45F0F80E0C160B5E
:10B18500500C120CC003F0010EF7EC45F00704D883
:10B19500A412000B50D8B406D043EC45F00009D8F2
:10B1A500A41200FAD7010E016E000E026E000E0306
:10B1B5006E000E046E3BEC47F01200516E000E500F
:10B1C5006E51C046F0476ABDEC46F04628526E52B5
:10B1D500C04FF05BD0000E536E4AD053500E0D0495
:10B1E5000EF324D96E030EF420DA6EDE04D8A43EE5
:10B1F500D053500E0D080EF324D96E030EF420DA49
:10B205006EDE50DE10DE10DE10D8A430D053500EA6
:10B215000D050EF324D96E030EF420DA6E0301DF5B
:10B22500500F0B4B6E4B500201DF5DD8A01FD05362
:10B23500500E0D050EF324D96E030EF420DA6E03BD
:10B2450001DF380F0B4B6E0201DF514B5CD8A00EAE
:10B25500D04850D8A40AD053500E0D0C0EF324D963
:10B265006E030EF420DA6EDE04D8B45206532A516A
:10B2750050535CD8B003D05250D8A4AFD74F5052DA
:10B2850018D8A403D0090E506E03D05250D8A4A2EA
:10B29500D75350D8B407D0530449C0D9FF4AC0DAB0
:10B2A500FFDF6E02D0090E506E5050120025682641
:10B2B5006827682868D8EC5CF009C021F00AC0222C
:10B2C500F00BC023F00CC024F0000E296E5DD029D0
:10B2D50050080D040EF324D96E040EF420DA6EDE48
:10B2E50004D8A451D02950080D000EF324D96E04BA
:10B2F5000EF420DA6EDE50215CDE502258DE50233B
:10B3050058DE502458D8A00DD02950080D000EF352
:10B3150024D96E040EF420DA6EDE6ADE6ADE6ADD9A
:10B325006A32D02950080D000EF324D96E040EF4AC
:10B3350020DA6E2150DE5E2250DE5A2350DE5A247A
:10B3450050DE5A2950080D000EF324D96E040EF470
:10B3550020DA6E2550DE5C2650DE582750DE582850
:10B3650050DE58D8B010D02950080D000EF324D95E
:10B375006E040EF420DA6EDECF25F0DECF26F0DE89
:10B38500CF27F0DECF28F0292A0001F751295CD814
:10B39500A09ED725C019F026C01AF027C01BF0289B
:10B3A500C01CF012000101415146EC46F0080E03A5
:10B3B5006E120EF7EC45F030C106F0000E076E0078
:10B3C5000E6AEC58F001013B913BB912003F51E385
:10B3D500EC48F02D5008E11F0E2A5CAC0E2B58DF0F
:10B3E5000E2C58D8A020D001013F51E3EC48F00DB8
:10B3F5000E05D0D8902D322C322B322A32E82EF978
:10B40500D72AC033F02BC034F02CC035F02DC03610
:10B41500F07D0E376E000E386E000E396E000E3A56
:10B425006ED4EC4BF01FD001013F51E3EC48F02AFC
:10B43500C033F02BC034F02CC035F02DC036F07D74
:10B445000E376E000E386E000E396E000E3A6ED451
:10B45500EC4BF00D0E05D0D8903632353234323300
:10B4650032E82EF9D733C07EF034C07FF035C08086
:10B47500F036C081F000017E5120087A6F4E0E7FB4
:10B48500557B6F000E80557C6F000E81557D6F7A60
:10B49500C054F07BC055F048EC76F0120002010074
:10B4A500950289F00E0217000ED16F000ED06F00C5
:10B4B5000EEE6F03A55ED0CF5107E1CC29FF0ECD6F
:10B4C500590F0ECE59D8A01BD0CCC201F0CDC20267
:10B4D500F0CEC203F0CFC204F07D0E056E000E065D
:10B4E5006E000E076E000E086EFEEC50F00C0ED8C6
:10B4F500900136023603360436E82EF9D722D0CC31
:10B50500C233F0CDC234F0CEC235F0CFC236F00C26
:10B515000ED8903336343635363636E82EF9D733ED
:10B52500C001F034C002F035C003F036C004F07D30
:10B535000E056E000E066E000E076E000E086EFEFE
:10B54500EC50F001C037F002C038F003C039F00408
:10B55500C03AF037C00EF038C00FF039C010F03ADD
:10B56500C011F00201E7515CEC49F00201E751C35B
:10B57500EC51F00001F251F311D8B4120001D812C8
:10B58500000500FA6EF251FD6EF351FE6EFF6AFA88
:10B5950050010E1200036E070E0201EB6F000EEC58
:10B5A5006F03500E0D050EF324D96E030EF420DA49
:10B5B5006E01C0DFFF03500E0D0D0EF324D96E038F
:10B5C5000EF420DA6E000EDB82000E046E50D004FD
:10B5D500500E0D050EF324D96E030EF420DA6E031A
:10B5E50001DF500F0B026E0201EB51025CD8B0185F
:10B5F500D004500E0D040EF324D96E030EF420DA98
:10B605006EDE04D8A40DD004500E0D050EF324D91A
:10B615006E030EF420DA6E0301DF500F0B0201EB0F
:10B625006F04500E0D050EF324D96E030EF420DAC7
:10B635006E0301DF380F0B0201EC6118D004500EC8
:10B645000D040EF324D96E030EF420DA6EDE04D851
:10B65500A40DD004500E0D050EF324D96E030EF47F
:10B6650020DA6E0301DF380F0B0201EC6F042AEDBF
:10B6750051045CD8A0ACD7DF51EC5DD8A0ECC2DF9B
:10B68500F2EB51DF5DD8B01200EBC2DFF212003FE2
:10B695000E71EC46F00001826F82A7120030C106E0
:10B6A500F0000E076E000E6AEC58F001013B914167
:10B6B5005146EC46F001013BB912003F51E3EC481D
:10B6C500F02D5008E11F0E2A5CAC0E2B58DF0E2C16
:10B6D50058D8A020D001013F51E3EC48F00D0E05EC
:10B6E500D0D8902D322C322B322A32E82EF9D72A97
:10B6F500C033F02BC034F02CC035F02DC036F07DB2
:10B705000E376E000E386E000E396E000E3A6ED48E
:10B71500EC4BF01FD001013F51E3EC48F02AC03358
:10B72500F02BC034F02CC035F02DC036F07D0E372F
:10B735006E000E386E000E396E000E3A6ED4EC4B6C
:10B74500F00D0E05D0D8903632353234323332E82A
:10B755002EF9D733C07EF034C07FF035C080F03687
:10B76500C081F000017E5120087A6F4E0E7F557B17
:10B775006F000E80557C6F000E81557D6F01013F76
:10B785005146EC46F07AC054F07BC055F048EC7653
:10B79500F01200036E03500E0D040EF324D96E0350
:10B7A5000EF420DA6E01C0DFFF03500E0D040EF318
:10B7B50024D96E030EF420DA6EDF50D8A40CD00322
:10B7C500500E0D080EF324D96E030EF420DA6EDE4A
:10B7D5006ADE6ADE6ADD6A000E046E50D004500E21
:10B7E5000D050EF324D96E030EF420DA6E0301DF86
:10B7F500500F0B026E0201EB51025CD8B018D00459
:10B80500500E0D040EF324D96E030EF420DA6EDE0D
:10B8150004D8A40DD004500E0D050EF324D96E03E3
:10B825000EF420DA6E0301DF500F0B0201EB6F04FB
:10B83500500E0D050EF324D96E030EF420DA6E03B7
:10B8450001DF380F0B0201EC6118D004500E0D0416
:10B855000EF324D96E030EF420DA6EDE04D8A40D9F
:10B86500D004500E0D050EF324D96E030EF420DA24
:10B875006E0301DF380F0B0201EC6F042A0201EDA4
:10B8850051045CD8A0ABD7DF51EC5DD8A0ECC2DF8A
:10B89500F2EB51DF5DD8B01200EBC2DFF21200020D
:10B8A5000103B180D0D951D75DD8A05CD047EC4A0F
:10B8B500F00D0F5F6E5F505B6E5C6A0201D4515BE9
:10B8C5005CD5515C58D8A034D0010EE4EC4CF000A6
:10B8D50009D8A42BD0B00E4A6E040E4B6ED4C24CC0
:10B8E500F0F7EC65F04A504B10D8A41FD0020102C6
:10B8F50051F00B0109026FD92BD9B11200DF51D8D4
:10B90500B41200D9515B6E5C6AD7515D6E5E6A01F7
:10B915000E5D26000E5E225B505D1804E15C505EF4
:10B9250018D8B41200B8EC53F0120076EC4EF012B1
:10B935000049EC45F00001F051F111D8B4120000B6
:10B945000E016E000E026E000E036E040E046E01F3
:10B95500D812000500FA6EF051FD6EF151FE6EFF32
:10B965006AFA501200D951D75DD8B0120003B1124E
:10B975000049EC45F00001F051F111D8B412000076
:10B985000E016E000E026E000E036E000E046E01B7
:10B99500D812000500FA6EF051FD6EF151FE6EFFF2
:10B9A5006AFA50120049EC45F0120062EC46F001CB
:10B9B500C012F102C013F101011605D8A449D00047
:10B9C5000E166F0001F4510101125D0D6E0001F5B7
:10B9D50051010113590E6E0F6AD8A00F060F5010B2
:10B9E5006E04510D5C116E05510E58126E06510F05
:10B9F50058136E07511058146E08511124156E090D
:10BA0500511220166E0A511320176E0B511420186F
:10BA15006E000E1524006F000E1620016F010E1723
:10BA250020026F000E1820036F12C104F113C10527
:10BA3500F1066B076B000E086F000E096F000E0A0A
:10BA45006F000E0B6F000E0001F56F000EF46F2CEA
:10BA5500D00001F4510101125D0D6E0001F5510197
:10BA65000113590E6E0F6A106A04510D5C116E05B3
:10BA7500510E58126E06510F58136E075110581477
:10BA85006E08511124006F09511220016F0A5113DC
:10BA950020026F0B511420036F005104270151053B
:10BAA50023025106230351072300C109F001C10AEE
:10BAB500F002C10BF003C10CF01200020103A10357
:10BAC500A526D0000E3B6E0DD03B50020DA80EF3FF
:10BAD50024D96E020EF420DA6E020EDE18D8B405F3
:10BAE500D03B2AA7513B5CD8A0EFD73B50A719D82C
:10BAF500A40ED0A751020DA80EF324D96E020EF4A0
:10BB050020DA6E020EDF6E100EA76101D0A72B039F
:10BB1500A51200CF5107E1CC29FF0ECD590F0ECE4E
:10BB250059D8A01BD0CCC201F0CDC202F0CEC203C1
:10BB3500F0CFC204F07D0E056E000E066E000E07F6
:10BB45006E000E086EFEEC50F00C0ED89001360219
:10BB55003603360436E82EF9D722D0CCC233F0CDE1
:10BB6500C234F0CEC235F0CFC236F00C0ED89033C9
:10BB750036343635363636E82EF9D733C001F0344B
:10BB8500C002F035C003F036C004F07D0E056E002E
:10BB95000E066E000E076E000E086EFEEC50F001EC
:10BBA500C037F002C038F003C039F004C03AF037AE
:10BBB500C00EF038C00FF039C010F03AC011F002D5
:10BBC50001E7515CEC49F00201E751C3EC51F01279
:10BBD5000021EE71F010EE3AF00F0EDBCFE3FFE837
:10BBE50006FCE24A0E016E000E026E000E046E00A7
:10BBF5000E036E000E066E100E056E7AEC47F04AC7
:10BC05000E1F6E000E206E33C021F034C022F05B93
:10BC1500EC48F04ABE0DD04A0E016E000E026E359C
:10BC2500C003F036C004F0100E056EE0EC4AF022B9
:10BC3500D04A0E016E000E026E35C003F036C00408
:10BC4500F0100E056EE0EC4AF0000E5A6E3A0E5AF0
:10BC550024D96EDA6A000EDA22DF50396E5A503571
:10BC650024D96E000E3620DA6E3950DF1A5A2A0FA3
:10BC75000E5A64ECD735C0D9FF36C0DAFFDFBE0DEA
:10BC8500D035C001F036C002F037C003F038C0042B
:10BC9500F0100E056EE0EC4AF0120035C001F036EA
:10BCA500C002F037C003F038C004F0100E056EE096
:10BCB500EC4AF0000E5A6E5A503724D96E000E38F1
:10BCC50020DA6E3A0E5A24E16EE26A000EE222E7AD
:10BCD50050396E5A503724E16E000E3820E26EE777
:10BCE500503918DF6E5A2A0F0E5A64E5D7120037FD
:10BCF50068386839683A68000E3B6E5ED03B500E76
:10BD05000D040EF324D96E030EF420DA6EDE04D88A
:10BD1500A452D03B500E0D080EF324D96E030EF439
:10BD250020DA6EDE50DE10DE10DE10D8B444D03BD3
:10BD3500500E0D080EF324D96E030EF420DA6EDED4
:10BD450050375CDE503858DE503958DE503A58D8F6
:10BD5500A032D03B500E0D050EF324D96E030EF420
:10BD650020DA6E0301DF500F0B336E33500201DF13
:10BD75005DD8A021D03B500E0D050EF324D96E03DE
:10BD85000EF420DA6E0301DF380F0B336E0201DF8C
:10BD950051335CD8A010D03B500E0D080EF324D9BA
:10BDA5006E030EF420DA6EDECF37F0DECF38F0DE2C
:10BDB500CF39F0DECF3AF03B2A3B500201ED5DD89A
:10BDC500B09DD70251F00B0609026F37C033F0382A
:10BDD500C034F039C035F03AC036F00C0ED8903387
:10BDE50036343635363636E82EF9D733C001F034D9
:10BDF500C002F035C003F036C004F07D0E056E00BC
:10BE05000E066E000E076E000E086EFEEC50F00179
:10BE1500C00EF002C00FF003C010F004C011F00214
:10BE250001E6515CEC49F00201E651C3EC51F01218
:10BE3500003FC033F040C034F0356A366AE80E374B
:10BE45006E030E386E000E396E000E3A6ED4EC4B52
:10BE5500F033C0CCF234C0CDF235C0CEF236C0CF0F
:10BE6500F23F504010D8A426D00201E75146EC46D7
:10BE7500F002010395000E496E18D04950020DA835
:10BE85000EF324D96E020EF420DA6E020EDE18D8F7
:10BE9500A40BD04950020DA80EF324D96E020EF45E
:10BEA50020DA6EFF0EDF6EA707492AA751495CD835
:10BEB500B01200E3D70201038502A91200CF510792
:10BEC500E1CC29FF0ECD590F0ECE59D8A01BD0CCF1
:10BED500C201F0CDC202F0CEC203F0CFC204F07DA4
:10BEE5000E056E000E066E000E076E000E086EFE45
:10BEF500EC50F00C0ED8900136023603360436E8C5
:10BF05002EF9D722D0CCC241F0CDC242F0CEC243E9
:10BF1500F0CFC244F00C0ED8904136423643364439
:10BF250036E82EF9D741C001F042C002F043C00304
:10BF3500F044C004F07D0E056E000E066E000E077F
:10BF45006E000E086EFEEC50F001C045F002C046D2
:10BF5500F003C047F004C048F045C00EF046C00FDE
:10BF6500F047C010F048C011F00201E7515CEC4900
:10BF7500F00201E751C3EC51F012003FC0D9FF4078
:10BF8500C0DAFFDF50456E3F4A402A3FC0D9FF4027
:10BF9500C0DAFFFF0EDE14416EFF0EDE14426EFFA7
:10BFA5000EDE14436E000EDE14446E41C033F042C3
:10BFB500C034F043C035F044C036F0640E376E002F
:10BFC5000E386E000E396E000E3A6ED4EC4BF0331F
:10BFD500C041F034C042F035C043F036C044F003F0
:10BFE5000E3F243F6E000E4020406E41C001F042DE
:10BFF500C002F043C003F044C004F0DCEC4DF00097
:10C0050009D8A40AD00201A751020DA90EF324D91B
:10C015006E020EF420DA6EDF8645500F0BB5EC4547
:10C02500F00009D8A40AD00201A751020DA90EF308
:10C0350024D96E020EF420DA6EDF884538070BBF6F
:10C04500EC45F00009D8A40AD00201A751020DA9B8
:10C055000EF324D96E020EF420DA6EDF8A0201A7F0
:10C0650051020DA90EF324D96E020EF420DA6EDF0B
:10C07500A826D0A751020DA90EF324D96E020EF4FD
:10C0850020DA6EDFA61CD0A751020DA90EF324D924
:10C095006E020EF420DA6EDFAA12D04538070BEFD8
:10C0A5006F41C001F042C002F043C003F044C00438
:10C0B500F045500F0B056ED4EC45F00201038F3FA0
:10C0C500C03FF040C040F01200000E0001E06FA03C
:10C0D5000E016E040E026E000E046E000E036E015C
:10C0E5000E066E0F0E056E7AEC47F01F0E0001DE90
:10C0F50017FC0EDE17E30EDE1724EEA0F0DEC0DF20
:10C10500FFE02B000EDF6FDF515908D96E000ED806
:10C11500A0E82A0208DA6EA00ED86F040ED96FE0E7
:10C1250051D827000ED923DF51D825E16E000ED94D
:10C1350021E26EDFCFE7FFDF2B070EDF65E4D7E0F7
:10C1450051080FE06F000EDF6FDF516108D96E00F7
:10C155000ED8A0E82A0208DA6EA00ED86F040ED910
:10C165006FE051D827000ED923DF51D825E16E00A5
:10C175000ED921E26EDFCFE7FFDF2B070EDF65E487
:10C18500D7E051080FE06FFF0E476E4668BDEC46DD
:10C19500F046C0D2F247C0D3F2A00E0001E025015F
:10C1A5006E026A040E0222D20E036E020E046E00A7
:10C1B5000E066E020E056E56EC4CF00001E05102C3
:10C1C5000FE06F420E5B6E020E5C6EA00E5D6E049C
:10C1D5000E5E6EE0C05FF0B4EC4CF05BC0DAF05C74
:10C1E500C0DBF05DC0DCF05EC0DDF0A00E0001E05C
:10C1F50025016E026A040E0222DA0E036E000E0499
:10C205006E000E066E040E056E56EC4CF00001E055
:10C2150051040FE06FE051120020EE01F00150D9FA
:10C22500260250DA22DF50036E20EE05F00150D9C8
:10C23500260250DA2210EE01F00150E1260250E20A
:10C2450022DFCFE7FF20EE09F00150D9260250DAB0
:10C255002210EE05F00150E1260250E222DFCFE781
:10C26500FF20EE0DF00150D9260250DA2210EE091A
:10C27500F00150E1260250E222DFCFE7FF20EE0D6C
:10C28500F00150D9260250DA2203C0DFFF20EE026A
:10C29500F00150D9260250DA22DF50036E20EE0A53
:10C2A500F00150D9260250DA2210EE02F00150E1D9
:10C2B500260250E222DFCFE7FF20EE0AF00150D937
:10C2C500260250DA2203C0DFFF20EE0EF00150D91E
:10C2D500260250DA22DF50036E20EE06F00150D917
:10C2E500260250DA2210EE0EF00150E1260250E24D
:10C2F50022DFCFE7FF20EE06F00150D9260250DA03
:10C305002203C0DFFF20EE03F00150D9260250DAE8
:10C3150022DF50036E20EE0FF00150D9260250DACD
:10C325002210EE03F00150E1260250E222DFCFE7B2
:10C33500FF20EE0BF00150D9260250DA2210EE0F45
:10C34500F00150E1260250E222DFCFE7FF20EE07A1
:10C35500F00150D9260250DA2210EE0BF00150E11F
:10C36500260250E222DFCFE7FF20EE07F00150D989
:10C37500260250DA2203C0DFFF1200000E476E00CE
:10C385000E486E35C001F0026A000E046E100E03F1
:10C395006E81EC51F00150466E010E476E52D0375A
:10C3A500C00CF038C00DF039C00EF03AC00FF047A0
:10C3B500C010F0010E116E40C012F0365085EC55DC
:10C3C500F04E0E1F6E010E206E3BC021F03CC022C8
:10C3D500F05BEC48F0000E486E3D503E24D96E00EF
:10C3E5000E3F20DA6E4750416E426A413A423AF0BA
:10C3F5000E421641500F0B4212F00E411633C04348
:10C40500F034C044F0415043264250442248504342
:10C4150026000E4422F00E4324E16EFF0E4420E276
:10C425006EE750456E4E0E4824E16EE26A010EE25B
:10C4350022E7504518DF6E3D2A482A0F0E4864CC86
:10C44500D7472A4750465CD8B0AAD735C041F00F28
:10C455000E4116D8B4120037C00CF038C00DF039B3
:10C46500C00EF03AC00FF047C010F0010E116E403B
:10C47500C012F0365085EC55F04E0E1F6E010E20A1
:10C485006E3BC021F03CC022F05BEC48F0000E484A
:10C495006E23D03D503E24D96E000E3F20DA6E4605
:10C4A50050100D33C041F034C042F0F3504126F432
:10C4B50050422248504124E16E000E4220E26EE7D0
:10C4C50050436E4E0E4824E16EE26A010EE222E709
:10C4D500504318DF6E3D2A482A35C041F00F0E4102
:10C4E500164150485CD8B01200D4D71CC018F11DB5
:10C4F500C019F11EC01AF11FC01BF1A80E01011CC5
:10C505006F610E1D6F000E1E6F000E1F6F500E2007
:10C515006FC30E216F000E226F000E236F010E30C8
:10C525006F070E326F010E336F010E396F000E3A31
:10C535006F000E256F080E246F0C0E316F010E343F
:10C545006F000E356F000E386FC10E276F940E28E1
:10C555006FC10E296F030E2F6F340E266F000E3B31
:10C565006F000E3C6F1AC03DF11BC03EF1000E3747
:10C575006F000E366F800E4A6F980E426F3A0E436B
:10C585006F000E446F000E456F020E4B6F0B0E4C85
:10C595006F120E4D6F000E476F000E486F4651D853
:10C5A500A423D0ACEC4EF001013F6FACEC4EF00192
:10C5B50001406FACEC4EF00101416FA40E016E8F8E
:10C5C5000E026E000E036E40512BEC48F0F80E0182
:10C5D5006E920E026E000E036E010141512BEC4866
:10C5E500F0010E0101466F0BD03F5146EC46F001BC
:10C5F50001405146EC46F00101415146EC46F09CA4
:10C60500EC49F0000E066E010E076E010E6AEC583D
:10C61500F018C10EF019C10FF01AC110F01BC111AD
:10C62500F0F6EC57F0420E036E3B0EF7EC45F03B8F
:10C635000E71EC46F0206E20BAFAD7230E036E0C6D
:10C645000EF7EC45F01E0E036E0D0EF7EC45F0AA45
:10C655000E036E1F0EF7EC45F08F0E036E350EF7C9
:10C66500EC45F0FF0E036E320EF7EC45F0400E037D
:10C675006E310EF7EC45F0010E066E010E076E00E9
:10C685000E6AEC58F0FF0E036E230EF7EC45F042F0
:10C695000E71EC46F00101496F120010C0D9FF116F
:10C6A500C0DAFFDF500F0B156E10C0D9FF11C0DACD
:10C6B500FFDF50126E12380F0B0F0B186E104A1158
:10C6C5002A10C0D9FF11C0DAFFDECF13F0DDCF1479
:10C6D500F0020E1024106E000E1120116E10C016FF
:10C6E500F011C017F0104A112A020102AD91D016BF
:10C6F500C0D9FF17C0DAFFDF38070B54EC46F0004E
:10C7050009D8A413D013C001F014C002F023EC4AD9
:10C71500F00009D8A40AD00201A751020DA90EF311
:10C7250024D96E020EF420DA6EDF801850B5EC4580
:10C73500F00009D8A412D00201EB51185CD8A00D65
:10C74500D01850EC5DD8A009D0A751020DA90EF361
:10C7550024D96E020EF420DA6EDF821550CEEC4637
:10C76500F00009D8A40AD00201A751020DA90EF3C1
:10C7750024D96E020EF420DA6EDF840201A751027D
:10C785000DA90EF324D96E020EF420DA6EDFA45B38
:10C79500D0A751020DA90EF324D96E020EF420DAAA
:10C7A5006EDFA251D0A751020DA90EF324D96E0256
:10C7B5000EF420DA6EDFA047D013C00DF014C00EC2
:10C7C500F016C0D9FF17C0DAFFDF38070B0F6E046C
:10C7D500EC46F0155013EC45F00201038918500F93
:10C7E500EC45F016C0D9FF17C0DAFFDF500F0B007C
:10C7F50009D8A402D0000E08D016C0D9FF17C0DA98
:10C80500FFDF500F0B126E12040201D66F038B1B54
:10C81500D0A751020DA90EF324D96E020EF420DA29
:10C825006EDF90A751020DA90EF324D96E020EF406
:10C8350020DA6EDF92A751020DA90EF324D96E02FC
:10C845000EF420DA6EDF9410C010F011C011F01252
:10C85500004A6E0201F005D8B481EC4BF0340E02AB
:10C8650001F46FF451F3EC44F0000E0201026F0085
:10C875000E036F000E046F000E056FDD69000EDEFE
:10C885006F000EC86F000EC96F000ECA6F000ECB89
:10C895006F000ED56F000ED46F000E0A6F000E0BE1
:10C8A5006F000E0C6F000E0D6F000E066F000E0769
:10C8B5006F000E086F000E096F000ED36F000ED2C9
:10C8C5006F000EDC6F010EDB6F000ED16F000ED016
:10C8D5006F000EEE6F000EEF6F000EC86F000EC9F1
:10C8E5006F000ECA6F000ECB6F0395000E026F002E
:10C8F5000E036F000E046F000E056F000E016F0032
:10C905000E006F070ED76F000ED66F010ED96F019F
:10C915000ED86FE0694AC0A4F2000E126F100EED3A
:10C925006F4A50D8A41BD0BF0E1A6E050E1B6EA001
:10C935000E1C6E270E1D6EBE0E1E6E330E1F6E78FC
:10C94500EC62F01EEC4FF0000E02011C6F080E1891
:10C955006FE60E196FD30E1A6F330E1AD0BF0E1A6B
:10C965006E050E1B6E200E1C6EA20E1D6ED30E1EC6
:10C975006E190E1F6E78EC62F0E5EC4EF0000E02BB
:10C98500011C6F280E186F760E196FE80E1A6F19B5
:10C995000E1B6F010EE16F000EDF6F67EC54F000A8
:10C9A5000E0201A66F000EA56F1D0E016E020E028E
:10C9B5006E000E046E000E036E000E066E690E0507
:10C9C5006E7AEC47F0030E0201956FE80E946F073F
:10C9D5000E976FD00E966F130E996F880E986F177E
:10C9E5000E9B6F700E9A6F070EA16FD00EA06F2071
:10C9F5000EA36F400EA26F400E9D6F000E9C6F4000
:10CA05000E9F6F000E9E6F000E406E000E3F6E1B58
:10CA1500EC5FF012003FC0D9FF40C0DAFFDF50469F
:10CA25006E3F4A402A3FC0D9FF40C0DAFFFF0EDE05
:10CA350014426EFF0EDE14436EFF0EDE14446E00CC
:10CA45000EDE14456E42C033F043C034F044C035A9
:10CA5500F045C036F0640E376E000E386E000E39A4
:10CA65006E000E3A6ED4EC4BF033C042F034C04346
:10CA7500F035C044F036C045F0030E3F243F6E004C
:10CA85000E4020406E3FC0D9FF40C0DAFFDF504165
:10CA95006E3F4A402A000E016E4650ADEC46F0004E
:10CAA50009D8A42DD042C001F043C002F044C00310
:10CAB500F045C004F0DCEC4DF00009D8B406D042D6
:10CAC50050431044104510D8A40AD00201A75102C2
:10CAD5000DA90EF324D96E020EF420DA6EDF8E4115
:10CAE5005001EC49F00009D8A40AD00201A751026F
:10CAF5000DA90EF324D96E020EF420DA6EDF8C0236
:10CB050001A751020DA90EF324D96E020EF420DA05
:10CB15006EDFAE65D0A751020DA90EF324D96E02C2
:10CB25000EF420DA6EDFAC5BD0100EDA6129D0424C
:10CB350050431044104510D8B41DD042C001F043F5
:10CB4500C002F044C003F045C004F04650ABEC48C9
:10CB5500F041C001F04650CDEC5AF0010E026E2EA8
:10CB65000E016E465043EC48F0010E016E4650CC66
:10CB7500EC5BF033D0000E056E46508FEC48F02D7F
:10CB8500D04250431044104510D8B421D042C001C2
:10CB9500F043C002F044C003F045C004F046501015
:10CBA5000FABEC48F041C001F04650100FCDEC5AE8
:10CBB500F0010E026E2E0E016E4650100F43EC482A
:10CBC500F0010E016E4650100FCCEC5BF006D00064
:10CBD5000E056E4650100F8FEC48F0020103873F9B
:10CBE500C03FF040C040F0120001013BA505D080D8
:10CBF5000E4B6E030E4A6E12003BC14DF0030E4DF7
:10CC050016D8B405D0800E4B6E040E4A6E12003055
:10CC150051D8A408D0400E4C6405D0800E4B6E024E
:10CC25000E4A6E12003F5146EC46F0000E406E046F
:10CC35000E3F6E01EC74F001013005D8A423D04CF1
:10CC4500C003F0220EF7EC45F00A0E71EC46F059E0
:10CC55006EF00E5916598659C003F00A0EF7EC45C9
:10CC6500F0400E036E400EF7EC45F0000E036E41EA
:10CC75000EF7EC45F030C106F0010E076E010E6AA5
:10CC8500EC58F00AD0000E036E400EF7EC45F000AC
:10CC95000E036E410EF7EC45F001013051D8A405A5
:10CCA500D04CC003F0000EF7EC45F0E2EC44F08008
:10CCB5000E1BEC45F0000E5A6E0AD05A504A24D984
:10CCC5006E000E4B20DA6EDF501BEC45F05A2A4CF5
:10CCD500505A5CD8A0F2D7E4EC44F001013B81E75F
:10CCE5000E3B1730C106F0000E076E030E6AEC58B6
:10CCF500F0000E0E6E000E0F6E0A0E106E000E1175
:10CD05006E01013F515CEC49F001013F51C3EC510B
:10CD1500F001014251431144114511D8B45ED0458B
:10CD25005107E14229FF0E43590F0E4459D8A01B64
:10CD3500D042C101F043C102F044C103F045C10432
:10CD4500F07D0E056E000E066E000E076E000E08D5
:10CD55006EFEEC50F00C0ED8900136023603360408
:10CD650036E82EF9D722D042C14DF043C14EF044EA
:10CD7500C14FF045C150F00C0ED8904D364E364F90
:10CD8500365036E82EF9D74DC001F04EC002F04FAF
:10CD9500C003F050C004F07D0E056E000E066E0057
:10CDA5000E076E000E086EFEEC50F001C055F00245
:10CDB500C056F003C057F004C058F055C00EF056E9
:10CDC500C00FF057C010F058C011F0010141515C7F
:10CDD500EC49F001014151C3EC51F0000E4B6E00DE
:10CDE5000E4A6E1200000E4C6E47C04DF048C04E04
:10CDF500F0E6D00201A751020DA90EF324D96E0267
:10CE05000EF420DA6EDF90A751020DA90EF324D996
:10CE15006E020EF420DA6EDF92A751020DA90EF311
:10CE250024D96E020EF420DA6EDF94A751020DA903
:10CE35000EF324D96E020EF420DA6EDF96A75102A6
:10CE45000DA90EF324D96E020EF420DA6EDF98A731
:10CE550051020DA90EF324D96E020EF420DA6EDF0D
:10CE65009AA751020DA90EF324D96E020EF420DA09
:10CE75006EDF9CA751020DA90EF324D96E020EF4A4
:10CE850020DA6EDF9E4DC0D9FF4EC0DAFFA75102F2
:10CE95000DA80EF324E16E020EF420E26EDFCFE75B
:10CEA500FF61D04DC001F04EC002F0A6EC47F00185
:10CEB500C04DF002C04EF00201A751020DA80EF3BD
:10CEC50024D96E020EF420DA6EFF0EDF6E68D04DA7
:10CED500C010F04EC011F050EC63F010C04DF011D1
:10CEE500C04EF05DD04DC001F04EC002F008EC4BD5
:10CEF500F001C04DF002C04EF052D04DC03FF04E93
:10CF0500C040F0C0EC5FF03FC04DF040C04EF04770
:10CF1500D04DC001F04EC002F025EC45F001C04DEA
:10CF2500F002C04EF03CD04DC03FF04EC040F00D79
:10CF3500EC65F03FC04DF040C04EF031D04DC0081B
:10CF4500F04EC009F028EC47F008C04DF009C04E7E
:10CF5500F026D0010E4C6E495047244D6E000E4808
:10CF6500204E6EA9D74DC0D9FF4EC0DAFF4D4A4EAF
:10CF75002ADF50020AD8B495D7010AD8B4A8D70732
:10CF85000AD8B4B0D7010AD8B4B8D7030AD8B4C000
:10CF9500D7010AD8B4C8D70F0AD8B4D0D7DAD70280
:10CFA50001A751020DA80EF324D96E020EF420DA62
:10CFB5006EDE28D8B404D0100EA76101D0A72B4986
:10CFC5005047244A6E000E48204B6E4A504D5C4B2C
:10CFD500504E58D8B003D04C50D8B40BD74DC0479D
:10CFE500F04EC048F01200456E210E4518D8A41227
:10CFF50000030E4A6E000E4B6E000E466E000E4785
:10D005006E000E486E000E496E460E016E000E0251
:10D015006E4B50030D3FC041F040C042F0F350410C
:10D0250026F45042220D0E4124036E000E422004C8
:10D035006E000E066E030E056E56EC4CF046C033C0
:10D04500F047C034F048C035F049C036F0640E37BB
:10D055006E000E386E000E396E000E3A6ED4EC4B33
:10D06500F033C046F034C047F035C048F036C0490B
:10D07500F04650471048104910D8B4A9D046C00111
:10D08500F047C002F048C003F049C004F0DCEC4DA5
:10D09500F00009D8A4A2D04A500E0DF3CF41F0F408
:10D0A500CF42F04B500E0D000E436E030E446EF34F
:10D0B500504326F450442241504324D96E425044F3
:10D0C50020DA6E46C0DEFF47C0DEFF48C0DEFF49FE
:10D0D500C0DEFF4A500E0DF3CF41F0F4CF42F04BC6
:10D0E500500E0D000E436E030E446E050E432600D2
:10D0F5000E4422F3504326F450442241504324D990
:10D105006E42504420DA6E0301DF500F0B5009DFE9
:10D115006E4A500E0DF3CF41F0F4CF42F04B500E56
:10D125000D000E436E030E446E050E4326000E449D
:10D1350022F3504326F450442241504324D96E42F1
:10D14500504420DA6EF00EDF164A500E0DF3CF4133
:10D15500F0F4CF42F04B500E0D000E436E030E441B
:10D165006E060E4326000E4422F3504326F4504427
:10D175002241504324D96E42504420DA6EE70EDE38
:10D185006E030EDD6E4A500E0DF3CF41F0F4CF4223
:10D19500F04B500E0D000E436E030E446E0D0E4304
:10D1A50026000E4422F3504326F4504422415043B6
:10D1B50024D96E42504420DA6EFF0EDF6E010E0553
:10D1C5006E4B504A248FEC48F00201038706D000CD
:10D1D5000E056E4B504A248FEC48F04B2A040E4B3B
:10D1E500640BD702010387120001013BA505D0801E
:10D1F5000E4B6E030E4A6E12003BC14CF0030E4CF3
:10D2050016D8B405D0800E4B6E040E4A6E12004A35
:10D21500504B10D8A407D0000E406E040E3F6E018F
:10D22500EC74F006D04AC03FF04BC040F001EC74FE
:10D23500F001013005D8A410D0010E036E220EF7BF
:10D24500EC45F0000E036E400EF7EC45F0000E03C2
:10D255006E410EF7EC45F014D04CC103F0120EF7F9
:10D26500EC45F04DC103F0130EF7EC45F0000E034D
:10D275006E400EF7EC45F0000E036E410EF7EC45DF
:10D28500F001013B83E70E3B174A504B10D8A40829
:10D29500D030C106F0000E076E050E6AEC58F0425C
:10D2A500D03005D8A408D0010E066E000E076E0614
:10D2B5000E6AEC58F037D0000E066E000E076E05AC
:10D2C5000E6AEC58F04A504C6E4B504D6E4E6A4FFC
:10D2D5006A0C0ED8904C364D364E364F36E82EF940
:10D2E500D74CC001F04DC002F04EC003F04FC00452
:10D2F500F07D0E056E000E066E000E076E000E0820
:10D305006EFEEC50F001C00EF002C00FF003C0102D
:10D31500F004C011F0010140515CEC49F0010140FD
:10D3250051C3EC51F001014251431144114511D84B
:10D33500B45ED0455107E14229FF0E43590F0E4413
:10D3450059D8A01BD042C101F043C102F044C1032A
:10D35500F045C104F07D0E056E000E066E000E0749
:10D365006E000E086EFEEC50F00C0ED890013602E1
:10D375003603360436E82EF9D722D042C14CF043A5
:10D38500C14DF044C14EF045C14FF00C0ED8904C44
:10D39500364D364E364F36E82EF9D74CC001F04D96
:10D3A500C002F04EC003F04FC004F07D0E056E00C4
:10D3B5000E066E000E076E000E086EFEEC50F001B4
:10D3C500C050F002C051F003C052F004C053F050F9
:10D3D500C00EF051C00FF052C010F053C011F00153
:10D3E5000141515CEC49F001014151C3EC51F000A0
:10D3F5000E4B6E000E4A6E1200406841684268434B
:10D4050068000E3F6E000E446E44500E0D040EF380
:10D4150024D96E030EF420DA6EDE04D8A48CD04431
:10D42500500E0D080EF324D96E030EF420DA6EDECD
:10D4350050DE10DE10DE10D8B47ED044500E0D083C
:10D445000EF324D96E030EF420DA6EDE500201C805
:10D455005DDE50C959DE50CA59DE50CB59D8B02DC2
:10D46500D044500E0D080EF324D96E030EF420DAC5
:10D475006EDECF33F0DECF34F0DECF35F0DECF36E3
:10D48500F0C851335C376EC9513458386ECA5135BE
:10D4950058396ECB5136583A6E44500E0D080EF37E
:10D4A50024D96E030EF420DA6E37C0DEFF38C0DEF5
:10D4B500FF39C0DEFF3AC0DEFF0CD044500E0D0828
:10D4C5000EF324D96E030EF420DA6EDE6ADE6ADE10
:10D4D5006ADD6A44500E0D080EF324D96E030EF46E
:10D4E50020DA6EDE50405CDE504158DE504258DE98
:10D4F500504358D8A020D044500E0D080EF324D91F
:10D505006E030EF420DA6EDE50DE10DE10DE10D86B
:10D51500B412D044500E0D080EF324D96E030EF448
:10D5250020DA6EDECF40F0DECF41F0DECF42F0DE16
:10D53500CF43F0010E3F6E442A0F0E446465D73F7A
:10D5450004D8A4120040C0C8F241C0C9F242C0CA02
:10D55500F243C0CBF2435007E14028FF0E41580F7C
:10D565000E4258D8A01BD040C001F041C002F04285
:10D57500C003F043C004F07D0E056E000E066E007C
:10D585000E076E000E086EFEEC50F00C0ED89001E2
:10D5950036023603360436E82EF9D722D040C0339A
:10D5A500F041C034F042C035F043C036F00C0ED81F
:10D5B500903336343635363636E82EF9D733C00152
:10D5C500F034C002F035C003F036C004F07D0E051E
:10D5D5006E000E066E000E076E000E086EFEEC5015
:10D5E500F001C03BF002C03CF003C03DF004C03E7A
:10D5F500F03BC00EF03CC00FF03DC010F03EC01136
:10D60500F00201E9515CEC49F00201E951C3EC512A
:10D61500F0120020EE0DF00150D9260250DA22DF7B
:10D6250050036E046A670E0324F66EFE0E0420F79F
:10D635006EF86A000EF8220800F5CF05F001C0D992
:10D64500FF02C0DAFF0550DF1A20EE0EF00150D9B7
:10D65500260250DA22DF50036E046A670E0324F6B1
:10D665006EFE0E0420F76EF86A000EF8220800F52B
:10D67500CF05F020EE01F00150D9260250DA22053F
:10D6850050DF1A20EE0FF00150D9260250DA22DFC2
:10D6950050036E046A670E0324F66EFE0E0420F72F
:10D6A5006EF86A000EF8220800F5CF05F020EE02AC
:10D6B500F00150D9260250DA220550DF1A20EE0C6F
:10D6C500F00150D9260250DA22DF50036E046A6752
:10D6D5000E0324F66EFE0E0420F76EF86A000EF8AF
:10D6E500220800F5CF05F020EE03F00150D92602FF
:10D6F50050DA220550DF1A01C0D9FF02C0DAFF0156
:10D70500011451DF1A7F0E14650CD01B0E14C103D2
:10D71500F0046AD890033604360318066E045007E1
:10D725006E05D0D8901435066E076A073606C01404
:10D73500F101C0D9FF02C0DAFFDF50036E20EE040D
:10D74500F00150D9260250DA220350DF1A20EE01EB
:10D75500F00150D9260250DA22DF50036E20EE0583
:10D76500F00150D9260250DA220350DF1A20EE02CA
:10D77500F00150D9260250DA22DF50036E20EE0662
:10D78500F00150D9260250DA220350DF1A20EE03A9
:10D79500F00150D9260250DA22DF50036E20EE0741
:10D7A500F00150D9260250DA220350DF1A20EE0488
:10D7B500F00150D9260250DA22DF50036E20EE0820
:10D7C500F00150D9260250DA220350DF1A20EE0567
:10D7D500F00150D9260250DA22DF50036E20EE09FF
:10D7E500F00150D9260250DA220350DF1A20EE0646
:10D7F500F00150D9260250DA22DF50036E20EE0ADE
:10D80500F00150D9260250DA220350DF1A20EE0724
:10D81500F00150D9260250DA22DF50036E20EE0BBC
:10D82500F00150D9260250DA220350DF1A20EE0803
:10D83500F00150D9260250DA22DF50036E20EE0C9B
:10D84500F00150D9260250DA220350DF1A20EE09E2
:10D85500F00150D9260250DA22DF50036E20EE0D7A
:10D86500F00150D9260250DA220350DF1A20EE0AC1
:10D87500F00150D9260250DA22DF50036E20EE0E59
:10D88500F00150D9260250DA220350DF1A20EE0BA0
:10D89500F00150D9260250DA22DF50036E20EE0F38
:10D8A500F00150D9260250DA220350DF1A12000087
:10D8B500016069616962696369020103B151D1025D
:10D8C500510F0B030AD8A410D01251D8A405D002C9
:10D8D50051F00B0409026F1200020E1219D8A4129E
:10D8E50000000EE9EC55F0120000A503D0BCEC4792
:10D8F500F0120002A9120000A153D0D951D75DD86A
:10D90500A035D00251F00B0609026FA0515B6EA144
:10D91500515C6E5D6A5E6A0C0ED8905B365C365D56
:10D92500365E36E82EF9D75BC001F05CC002F05DCB
:10D93500C003F05EC004F07D0E056E000E066E009D
:10D945000E076E000E086EFEEC50F001C00EF002E0
:10D95500C00FF003C010F004C011F00201E8515CE3
:10D96500EC49F00201E851C3EC51F0120049EC45D5
:10D97500F00001F051F111D8B41200000E016E0053
:10D985000E026E000E036E000E046E01D812000525
:10D9950000FA6EF051FD6EF151FE6EFF6AFA5012FB
:10D9A50000D851D65DD8A0C2D00251F00B060902AD
:10D9B5006F010EE4EC4CF00009D8A416D0B00E4A65
:10D9C5006E040E4B6ED4C24CF0F7EC65F04A504B2A
:10D9D50010D8A407D00201D82B0251F00B0109027F
:10D9E5006F120091EC45F0C4D7000E0001646F6220
:10D9F500D0000164510E0D040EF324D96E030EF40C
:10DA050020DA6EDE04D8A454D064510E0D080EF34E
:10DA150024D96E030EF420DA6EDE50DE10DE10DE41
:10DA250010D8B446D064510E0D080EF324D96E03F8
:10DA35000EF420DA6EDE50605DDE506159DE506214
:10DA450059DE506359D8A034D064510E0D050EF33C
:10DA550024D96E030EF420DA6E0301DF500F0B5B41
:10DA65006E5B500201DF5DD8A023D0000164510E2A
:10DA75000D050EF324D96E030EF420DA6E0301DFD3
:10DA8500380F0B5B6E0201DF515B5CD8A011D00033
:10DA95000164510E0D080EF324D96E030EF420DA3D
:10DAA5006EDECF60F0DECF61F0DECF62F0DECF63F9
:10DAB500F00001642B64510201ED5DD8B099D76087
:10DAC500C05BF061C05CF062C05DF063C05EF00CED
:10DAD5000ED8905B365C365D365E36E82EF9D7009B
:10DAE5000E5B24016E200E5C20026E030E5D20038A
:10DAF5006E000E5E20046E7D0E056E000E066E0035
:10DB05000E076E000E086EFEEC50F001C00EF0021E
:10DB1500C00FF003C010F004C011F00201EA515C1F
:10DB2500EC49F00201EA51C3EC51F0120091EC45C9
:10DB3500F00001F051F111D8B41200000E016E0091
:10DB45000E026E000E036E010E046E01D812000562
:10DB550000FA6EF051FD6EF151FE6EFF6AFA501239
:10DB6500000001F051F111D8B41200000E016E0051
:10DB75000E026E000E036E020E046E01D812000531
:10DB850000FA6EF051FD6EF151FE6EFF6AFA501209
:10DB950000000E0001D36F000ED26F000ED06F6033
:10DBA500C033F061C034F07E0E356E000E366E6EF9
:10DBB5000E376E000E386EEBEC5DF00001665167B6
:10DBC5006F686B0F0E6727000E6823040E696F6878
:10DBD5003568336733692FFBD76751D16FD151D87A
:10DBE500A403D0010ED16F08D066C067F00F0E6791
:10DBF50017D8A402D0010E01D0000ED06FD005D8E1
:10DC0500A43BD0000ED26FD151100DF350F00FD3BD
:10DC15006F19D08E0ED225D96EDA6A000EDA227E01
:10DC25000ED225E16EE26A000EE222E750676FD35D
:10DC3500516425E16E000E6521E26EE7506719DF3C
:10DC45006ED22BD32BD151676F686B673B683BF066
:10DC55000E681767510F0B6813F00E6717D35169DC
:10DC65006F6A6B6751695D6A51800A6B6F68518095
:10DC75000A6B59D8B05DD0CDD766516425676F0062
:10DC85000E6521686F66C069F00F0E6917695167E7
:10DC95005DCE6F6851D8A06805CF6F000ED36F6653
:10DCA500510F0BD3610FD0D351CE25D96E000ECFB6
:10DCB50021DA6E9E0ED325E16EE26A000EE222DFC6
:10DCC500CFE7FF15D066510F0BD319D8A408D09E06
:10DCD5000ED325D96EDA6A000EDA22800E07D09EA1
:10DCE5000ED325D96EDA6A000EDA22000EDF6ED366
:10DCF5002B0F0ED365D4D7000ED36F8E0ED325D937
:10DD05006EDA6A000EDA226E0ED325E16EE26A0043
:10DD15000EE222E750676F9E0ED325E16EE26A00A0
:10DD25000EE222E7506719DF6ED32B0F0ED365E5A0
:10DD3500D7BE0E016E000E026E000E046E000E03BD
:10DD45006E000E066E100E056E7AEC47F0000E00A2
:10DD550001D36F4BD0000ED26FAE0ED225D96EDA3D
:10DD65006A000EDA22D351676F686B673B683BF038
:10DD75000E681767510F0B6813F00E671764C069BB
:10DD8500F065C06AF06751692768516A23D2516905
:10DD950025E16E000E6A21E26EE7506B6FBE0ED272
:10DDA50025E16EE26A000EE222E7506B19DF6ED2C2
:10DDB5002B0F0ED265D1D7BE0E016E000E026EAED0
:10DDC5000E036E000E046E000E066E100E056E56E6
:10DDD500EC4CF0BE0E1F6E000E206E60C021F0618F
:10DDE500C022F05BEC48F00001D32BFF0E676FFFFC
:10DDF5000E686FD151696F6A6B6751692768516AFF
:10DE050023D3516B6F6C6B69516B5D6C51800A6DDF
:10DE15006F6A51800A6D59D8A09DD7000ED36FAE99
:10DE25000ED325D96EDA6A000EDA228E0ED325E1DD
:10DE35006EE26A000EE222E750676FBE0ED325E15F
:10DE45006EE26A000EE222E7506719DF6ED32B0FF0
:10DE55000ED365E5D7AE0E1F6E000E206E60C02195
:10DE6500F061C022F05BEC48F062C001F063C002D3
:10DE7500F0AE0E036E000E046E000E066E100E055B
:10DE85006E56EC4CF0120003C0D9FF04C0DAFFDF78
:10DE9500500E6E000E0D6E69D10550D8B447D10DE8
:10DEA50050020DA80EF324D96E020EF420DA6EDEB0
:10DEB50028D8B43CD1FE0E066EFF0E076E0D50023B
:10DEC5000DA80EF324D96E020EF420DA6EDF500889
:10DED5006E096A0650082607500922870E0824F69F
:10DEE5006EFF0E0920F76EF86A000EF8220800F59D
:10DEF500500EC00AF00B6A0A26000E0B2203C0D989
:10DF0500FF04C0DAFFDF500C6E0C500A5E000E0BEA
:10DF15005A0BBE0CD10B5005E1100E0A5CD8B02A85
:10DF2500D105D128D10E500124D96E000E0220DA78
:10DF35006E030EDF6E0E2A0E500124D96E000E02FE
:10DF450020DA6E000EDF6E0D50020DA90EF324D9F6
:10DF55006E020EF420DA6EDFA008D00E500124D92F
:10DF65006E000E0220DA6E000EDB800D50020DA948
:10DF75000EF324D96E020EF420DA6EDFA208D00E5D
:10DF8500500124D96E000E0220DA6E000EDB820DE0
:10DF950050020DA90EF324D96E020EF420DA6EDFBD
:10DFA500A408D00E500124D96E000E0220DA6E00AE
:10DFB5000EDB840E2AD9D00E500124D96E000E0234
:10DFC50020DA6E050EDF6E0E2A0E500124D96E0082
:10DFD5000E0220DA6E000EDF6E0D50020DA90EF353
:10DFE50024D96E020EF420DA6EDFA608D00E500199
:10DFF50024D96E000E0220DA6E000EDB800D500271
:10E005000DA90EF324D96E020EF420DA6EDFA808EE
:10E01500D00E500124D96E000E0220DA6E000EDB00
:10E02500820D50020DA90EF324D96E020EF420DAEA
:10E035006EDFBAB7D7BED70E500124D96E000E02D7
:10E0450020DA6E060EDF6E0E2A0E500124D96E0000
:10E055000E0220DA6EE0C2DFFF0E2AF0EC44F080FB
:10E065000AA00FD8A006D0F0EC44F0800A600FD8C3
:10E07500A008D00E500124D96E000E0220DA6E20C1
:10E085000E09D00E500124D96E000E0220DA6EF072
:10E09500EC44F03F0BDF6E8DD70E500124D96E0096
:10E0A5000E0220DA6E070EDF6E0E2A0E500124D9FD
:10E0B5006E000E0220DA6E000EDF6E0D50020DA905
:10E0C5000EF324D96E020EF420DA6EDFAE08D00E00
:10E0D500500124D96E000E0220DA6E000EDB800D91
:10E0E50050020DA90EF324D96E020EF420DA6EDF6C
:10E0F500AC60D70E500124D96E000E0220DA6E00F6
:10E105000EDB8257D7DD69000EDE6F0D50020DA8BC
:10E115000EF324D96E020EF420DA6E0E500124E1BE
:10E125006E000E0220E26EDFCFE7FF43D70D5002EF
:10E135000DA80EF324D96E020EF420DA6EDF50021C
:10E145000AD8B4E0D7010AD8B4EDD6070AD8B4DDA9
:10E15500D7010AD8B430D7030AD8B46DD7010AD885
:10E16500B49BD70F0AD8B4D1D70D2A0201A7510DF8
:10E175005CD8A092D603C0D9FF04C0DAFF0EC0DF79
:10E18500FF12000A0E0101156F010E146F000E1E1D
:10E195006E1E500A24D96E000E0B20DA6EDF500C6D
:10E1A5006E1E500824D96E000E0920DA6E0C50DF61
:10E1B5001A1E2A0F0E1E64ECD7000E1E6E1E500886
:10E1C50024D96E000E0920DA6EDF500C6E0D6A67D9
:10E1D5000E0C24F66EFE0E0D20F76EF86A000EF892
:10E1E500221E500824D96E000E0920DA6E0800F5AB
:10E1F500CFDFFF1E2A0F0E1E64E1D708C001F0090C
:10E20500C002F00FEC61F001011505D8B418D1007A
:10E215000E1E6E1E5008240C6E000E09200D6E0198
:10E225000E0C24D96E000E0D20DA6EDF500E6E1E18
:10E23500500824D96E000E0920DA6EDF500E181C26
:10E245006E1E5008240C6E000E09200D6E030E0C78
:10E2550024D96E000E0D20DA6EDF500E6E1E5008AA
:10E26500240F6E000E0920106E020E0F24D96E00C9
:10E275000E1020DA6EDF500E181D6E1C501D181A78
:10E285006E1E5008240C6E000E09200D6E010E0C3A
:10E2950024D96E000E0D20DA6EDF500E6E1E50086A
:10E2A500240F6E000E0920106E020E0F24D96E0089
:10E2B5000E1020DA6EDF500E181B6E7F0E1C640CDC
:10E2C500D01B0E1CC00CF00D6AD8900C360D360C08
:10E2D50018146E0D50156E05D0D8901C34146E159B
:10E2E5006A153614C01CF07F0E1B640CD01B0E1B68
:10E2F500C00CF00D6AD8900C360D360C18166E0D44
:10E3050050176E05D0D8901B34166E176A1736163F
:10E31500C01BF07F0E1D640CD01B0E1DC00CF00D34
:10E325006AD8900C360D360C18186E0D50196E05FE
:10E33500D0D8901D34186E196A193618C01DF01EF4
:10E34500500824D96E000E0920DA6E1E500824E10B
:10E355006E000E0920E26EE7501A181C18DF6E1EBB
:10E365005008240C6E000E09200D6E010E0C24D9E8
:10E375006E000E0D20DA6E1E5008240E6E000E097A
:10E38500200F6E010E0E24E16E000E0F20E26EE7E7
:10E39500501A181B18DF6E1E5008240C6E000E094B
:10E3A500200D6E020E0C24D96E000E0D20DA6E1EA5
:10E3B5005008240E6E000E09200F6E020E0E24E189
:10E3C5006E000E0F20E26EE7501A181D18DF6E1E44
:10E3D5005008240C6E000E09200D6E030E0C24D976
:10E3E5006E000E0D20DA6E1E5008240E6E000E090A
:10E3F500200F6E020E0E24E16E000E0F20E26EE776
:10E4050050106E1E500824116E000E0920126E0168
:10E415000E1124E16E000E1220E26EE750136E1EFF
:10E42500500824E16E000E0920E26EE75013181023
:10E43500181A18DF6E040E1E260F0E1E64EAD60A81
:10E44500C001F00BC002F00CEC6BF0000E1E6E1E4E
:10E45500500A24D96E000E0B20DA6EDF500C6E1EAA
:10E46500500824D96E000E0920DA6E0C50DF1A1EF2
:10E475002A0F0E1E64ECD7010115071551D8B412E9
